:020000020000FC
:100000000FEF07BB00E308BB09D044E008E62BD0A4
:1000100004E646D04A95D1F7FFCFF6CF04E64CD0A0
:1000200003E00FD001E048D004E217D004E215D07D
:100030000FE013D001E011D004E03ED007E00DD076
:100040000895C598C49A006108BB00000000C498D8
:1000500000000000C59AC49A0895C59804D0C59AB6
:1000600002E31ED0089500000000C49A102F1695D8
:10007000169516951695106118BB0000000000003B
:10008000C498000000000000C49A0F70006108BB13
:10009000000000000000C498000000000000089567
:1000A0000000000000000000000000000000000050
:1000B00000000A95A9F7089510E000001A95E9F7E5
:1000C0000A95D9F7089520E010E00DE32A95F1F79D
:0A00D0001A95E1F70A95D1F708959B
:00000001FF
