:020000020000FC
:100000000FEF07BB17D000E848D0F0E0ECE12FD0AD
:1000100004EC43D0F0E0E8E22AD0FFCF567365202D
:1000200064657469202D0000706F726F737961745C
:100030006121000004E649D003E02BD00AE045D05E
:1000400003E027D001E041D003E023D001E03DD020
:1000500002E01FD001E039D00CE21FD00FE01DD02C
:1000600001E01BD00AE031D007E017D008950591D8
:10007000002311F016D0FBCF089518B3107F0F7036
:10008000012B08BBC49A01E020D0C49801E01DD028
:100090000895C598F2DFC59A0895C59802D0C59A0B
:1000A0000895402F0295E9DF042FE7DF01E00DD02E
:1000B00008950000000000000000000000000000A3
:1000C000000000000A95A9F7089510E000001A95B5
:0800D000E9F70A95D9F708953C
:00000001FF
