:020000020000FC
:100000008E9A889A8998969844E146D04A95E9F75D
:1000100060E070E00BD0643018F4743020F4FACF54
:10002000969A909A02C096989098EECF13D00F307F
:1000300040F470E0639596990CC0969A28D09698F3
:1000400008C060E07395969B04C0969820D01FD09E
:10005000969A08950BD08199FECF30E011D03F3FA2
:1000600009F03395819BFACF032F089534E02AEFEE
:1000700007D0819BFBCF2A95D9F73A95C1F7089510
:1000800000E01DE00A95F1F71A95E1F708952AE0DE
:10009000F7DF2A95E9F7089534E02AEFF1DF2A9592
:0800A000E9F73A95D1F7089544
:00000001FF
