:020000020000FC
:10000000389A3A9A399A42984098419A209A219A75
:10001000A8D0B1E0A0E225E000E02D930D931A9561
:10002000E1F780E0082F1AD083958430D9F75DD0AE
:10003000ACD001E001D0F5CF000FB1E0A0E2A00FFD
:1000400000E0B01F0D911D91103021F419E0003037
:1000500009F404E01A951E930E930895402F000FA3
:10006000B1E0A0E2A00F00E0B01F0D911C91440F81
:10007000440F440FB1E0A0E0A40F40E0B41F01D052
:100080000895000F000F000F010F193008F00A95B6
:10009000F1E0E8E9E00F00E0F01F28E0183011F08F
:1000A000059101C000E00D9313952A95B9F70895C5
:1000B00018E0302E331C10F0409801C0409A61D0F7
:1000C000429A5FD042985DD01A95A1F70895002E0C
:1000D000112E419856D024E0002DEADF012DE8DFF3
:1000E0002A95D1F7419A4DD0089500E0402F042F72
:1000F000B1E0A0E0A00F00E0B01F419842D000E0C6
:10010000502F042F0395D4DF0C91D2DF08E0A00F0D
:1001100000E0B01F53955430A1F7419A32D0439577
:10012000483029F70895222379F0283068F4000F29
:10013000000F000F010FF1E0E8E9E00F00E0F01F11
:1001400005910D932A95E1F7089500E00D93089528
:10015000000FB1E0A0E2A00F00E0B01F0D911D91D3
:1001600008950CE011E0B3DF09E010E0B0DF0AE031
:1001700010E0ADDF0BE017E0AADF0FE010E0A7DF33
:10018000089501E00A95F1F7089500E010E00A955E
:10019000F1F71A95E1F708950810107CFEFE7C38FF
:1001A0007F63460C183838384266FFDBFF423C1844
:1001B0003C7EDBFFBDDB663C00367F7F3E1C0800DB
:0801C0000810107CFEFE7C38E3
:00000001FF
