:020000020000FC
:10000000559A579A569A5F985D985E9A3D9A3B9A90
:100010003C98459A4398209A289A209A219A6DD123
:1000200004E600937C00B1E0A3E200E010E020E0F1
:100030002D931D930D930D9323952430C9F700E064
:100040000093020189D007C021D010E00091010186
:10005000E6D06FD1F9CF46D000FD11C017D00431E2
:1000600020F411E0109302010AC010910201112343
:1000700031F00C3520F010E0109302011ED00091F9
:100080000001037009F468D04DD1E5CF24E030E0E1
:1000900007EC00937A0000917A0006FDFCCF0091F6
:1000A000790010910101100F10930101069506953A
:1000B000300F2A9569F7032F0895B1E0A3E234E0E9
:1000C00013EA009101010F70100F2FEF0D910D91A8
:1000D0001D932D93009101010370115F100F3A954C
:1000E000A9F7089540E050E070E0042FB1E0A3E2EA
:1000F000A00F0F9300E0B01F0F910D911D912D9156
:100100003D912223D1F0320F48F4103031F41AE03F
:10011000003011F409E001C00A951A9560910001C0
:10012000677039F42E3110F0215003C0112309F407
:1001300020E03E932E931E930E93772319F42223EF
:1001400009F071E04C5F403181F6609100016395E8
:1001500060930001072F089580E0082F05D0839554
:100160008430D9F7AAD00895402F000F000FB1E0D6
:10017000A3E2A00F0F9300E0B01F0F910D911C910F
:10018000440F440F440FB1E0A3E0A40F4F9340E0AD
:10019000B41F4F9118D00895000F000FB1E0A3E2F3
:1001A000A00F0F9300E0B01F0F910D911D91103023
:1001B00031F41AE0003011F409E001C00A951A95F3
:1001C0001E930E93089520E0000F000F000F302FB4
:1001D000183070F4010FF3E0E0E4E00F0F9300E05B
:1001E000F01F0F9105910D93239513951830D1F7BA
:1001F00000E0283099F01A3021F00D9313952395E3
:10020000F8CF385FF3E0E0E4E30F3F9330E0F31F13
:100210003F9105910D9323952830D9F7089524E057
:100220006FEF2A956395362F330F330FB1E0A3E2BA
:10023000A30F3F9330E0B31F3F912223A1F0322F51
:10024000330FF2E0E6E7E30F3F9330E0F31F3F9117
:100250003591449150E0031B140B18F4030F141F45
:1002600003C05395F8CF502F5D9350E05C93222349
:10027000C1F672DF089501000A006400E803102748
:1002800018E0302E331C10F05D9801C05D9A45D007
:100290005F9A43D05F9841D01A95A1F70895002E38
:1002A000112E5E983AD024E0002DEADF012DE8DF20
:1002B0002A95D1F75E9A31D0089500E0402F042F9F
:1002C000B1E0A3E0A00F0F9300E0B01F0F915E9884
:1002D00024D000E0502F042F0395D2DF0C91D0DF03
:1002E00008E0A00F00E0B01F53955430A1F75E9ACC
:1002F00014D04395483019F708950CE011E0CFDF92
:1003000009E010E0CCDF0AE010E0C9DF0BE017E005
:10031000C6DF0FE010E0C3DF0895089501E00A95FD
:10032000F1F7089500E011E00A95F1F71A95E1F769
:10033000089500E014E60A95F1F71A95E1F708959B
:100340003C6666666666663C183818181818183CCD
:100350003C66060C1830607E3C66061C0606663C51
:10036000060E1626667F06067E60607C0606663CE4
:100370003C62607C6666663C7E060C18303030302D
:100380003C66663C6666663C3C6666663E06663C67
:100390003C6666666666663C0810107CFEFE7C382D
:1003A0007F63460C183838384266FFDBFF423C1842
:1003B0003C7EDBFFBDDB663C00367F7F3E1C0800D9
:0803C0000810107CFEFE7C38E1
:00000001FF
