:020000020000FC
:10000000519A529A539A5A9859985B9A78D0B0E07C
:10001000A0E600E010E042D001E010E03FD002E0B6
:1000200010E03CD003E010E039D0FFCFF0CF18E073
:10003000302E331C10F0599801C0599A6DD05A9A3D
:100040006BD05A9869D00895002E112E5B9864D019
:1000500024E0002DECDF112DEADF2A95D1F75B9A21
:10006000089500E0402FB0E0A0E6A40F00E0B01F2C
:100070005B9852D000E0502F042F0395D8DF0C91ED
:10008000D6DF08E0A00F00E0B01F53955430A1F771
:100090005B9A42D04395483031F70895F1E0E0E2B1
:1000A000000F000F000FE00F00E0F01F18E00591B7
:1000B0001F93000F1A95E9F71F910D931A95B9F741
:1000C0000895F1E0E0E2000F000F000FE00F00E004
:1000D000F01F38E005911F9306951A95E9F71F91D7
:1000E0002C91022B0D933A95A9F70895000FB0E0DB
:1000F000A0E8A00F00E0B01F0D901D9008950CE047
:1001000011E0A2DF09E010E09FDF0AE017E09CDFCA
:100110000BE017E099DF089500E00A95F1F70895E4
:1001200008107CD6EA7C381000E0C78F9FB0E0C092
:100130003C7EDBFFBDDB663C0036494122140800F3
:00000001FF
