:020000020000FC
:10000000389A3A9A399A42984098419A209A219A75
:10001000E8D0B1E0A0E200E014E020E02D931D93D1
:100020000D930D9323952430C9F780E0082F45D018
:1000300083958430D9F799D0E8D001E029D0F5CF65
:10004000B1E0A0E224E012E80D910D911D501D9346
:100050001D932A95C9F70895B1E0A0E240E050E071
:100060000D911D912D913D91222359F0320F48F4AD
:10007000103031F41AE0003011F409E001C00A95A3
:100080001A9527503E932E934395443049F708958F
:10009000000F000FB1E0A0E2A00F00E0B01F0D9133
:1000A0001D91103031F41AE0003011F409E001C064
:1000B0000A951A951E930E930895402F000FB1E0F4
:1000C000A0E2A00F00E0B01F0D911C91440F440F5F
:1000D000440FB1E0A0E0A40F40E0B41F01D00895A8
:1000E00020E0000F000F000F302F183060F4010FD8
:1000F000F2E0E8E1E00F00E0F01F05910D93239599
:1001000013951830D1F700E0283089F01A3021F02B
:100110000D9313952395F8CF385FF2E0E8E1E30FF4
:1001200030E0F31F05910D9323952830D9F70895FA
:1001300018E0302E331C10F0409801C0409A61D076
:10014000429A5FD042985DD01A95A1F70895002E8B
:10015000112E419856D024E0002DEADF012DE8DF72
:100160002A95D1F7419A4DD0089500E0402F042FF1
:10017000B1E0A0E0A00F00E0B01F419842D000E045
:10018000502F042F0395D4DF0C91D2DF08E0A00F8D
:1001900000E0B01F53955430A1F7419A32D04395F7
:1001A000483029F70895222379F0283068F4000FA9
:1001B000000F000F010FF2E0E8E1E00F00E0F01F98
:1001C00005910D932A95E1F7089500E00D930895A8
:1001D000000FB1E0A0E2A00F00E0B01F0D911D9153
:1001E00008950CE011E0B3DF09E010E0B0DF0AE0B1
:1001F00010E0ADDF0BE017E0AADF0FE010E0A7DFB3
:10020000089501E00A95F1F7089500E014E60A95D3
:10021000F1F71A95E1F708953C6666666666663CF6
:10022000183818181818183C3C66060C1830607EF0
:100230003C66061C0606663C060E1626667F06060B
:100240007E60607C0606663C3C62607C6666663C5E
:100250007E060C18303030303C66663C6666663C84
:100260003C6666663E06663C3C6666666666663C5E
:100270000810107CFEFE7C387F63460C1838383836
:100280004266FFDBFF423C183C7EDBFFBDDB663C89
:1002900000367F7F3E1C08000810107CFEFE7C3874
:00000001FF
