:020000020000FC
:10000000389A3A9A399A42984098419A209A219A75
:1000100079D080E0B1E0A0E000E0182F06D036D023
:1000200085D083958A30B1F7F4CF000F000F000F11
:10003000010FF1E0E0E4E00F00E0F01F28E01830ED
:1000400011F0059101C000E00D9313952A95B9F7C1
:10005000089518E0302E331C10F0409801C0409AEB
:1000600061D0429A5FD042985DD01A95A1F7089569
:10007000002E112E419856D024E0002DEADF012DEC
:10008000E8DF2A95D1F7419A4DD0089500E0402F3E
:10009000042FB1E0A0E0A00F00E0B01F419842D0D3
:1000A00000E0502F042F0395D4DF0C91D2DF08E03D
:1000B000A00F00E0B01F53955430A1F7419A32D001
:1000C0004395483029F70895222379F0283068F4C1
:1000D000000F000F000F010FF1E0E0E4E00F00E07F
:1000E000F01F05910D932A95E1F7089500E00D9317
:1000F0000895000FB1E0A0E2A00F00E0B01F0D9145
:100100001D9108950CE011E0B3DF09E010E0B0DFCD
:100110000AE010E0ADDF0BE017E0AADF0FE010E02F
:10012000A7DF089504E10A95F1F7089500E010E0D3
:1001300022E00A95F1F71A95E1F72A95D1F708958B
:100140000810107CFEFE7C387F63460C1838383867
:100150004266FFDBFF423C183C7EDBFFBDDB663CBA
:08016000003649412214080099
:00000001FF
