:020000020000FC
:10000000389A3A9A399A42984098419A209A219A75
:100010007AD080E001E0B1E0A0E000E0182F48D005
:10002000B1E0A0E001E018E0181B139551D022D0F8
:100030007ED08395893071F7ECCF18E0302E331CD9
:1000400010F0409801C0409A6ED0429A6CD042980D
:100050006AD01A95A1F70895002E112E419863D009
:1000600024E0002DEADF012DE8DF2A95D1F7419A3F
:100070005AD0089500E0402F042FB1E0A0E0A00F77
:1000800000E0B01F41984FD000E0502F042F03959F
:10009000D4DF0C91D2DF08E0A00F00E0B01F539531
:1000A0005430A1F7419A3FD04395483029F708953D
:1000B000000F000F000F010FF1E0E2E4E00F00E09D
:1000C000F01F28E0211B05910D932A95E1F7089573
:1000D000000F000F000FF1E0E2E4E00F00E0F01F7E
:1000E00028E0211BA10F10E0B11F05910D932A9567
:1000F000E1F70895000FB1E0A0E2A00F00E0B01F0B
:100100000D911D9108950CE011E0A6DF09E010E0CB
:10011000A3DF0AE010E0A0DF0BE017E09DDF0FE0B7
:1001200010E09ADF089504E10A95F1F7089500E0E0
:1001300010E025E00A95F1F71A95E1F72A95D1F735
:10014000089508107CD6EA7C38107F63460C183876
:1001500038383C7EDBFFBDDB663C0036494122146B
:02016000080095
:00000001FF
