:020000020000FC
:0200000008C036
:1000100018950FE90DBFBC9AB89AB99AC19A03E234
:1000200007B905E806B900E003B9A39A00E305BFE4
:1000300006E401BD789460E030E0332EC098BC98AF
:10004000A7D0002311F48895FBCFC09ABC9A0DD09D
:10005000C098BC9802D08895F3CFB0E0ABE748E0F9
:100060003D924A95E9F760E0089502D001D00895E5
:1000700030E0932EEEEAF0E0E90D00E0F01F9394FB
:100080000491002309F4089523D0E9D0F3CF902EF2
:100090001FD0E5D0092D095F023DC8F30895902EC9
:1000A00017D0DDD0092D07500E37C8F70895A8A343
:1000B0009F9B938A7E7164545C647E93A3A8A8ACD2
:1000C000B0ACACA80000BCCF899379939993089504
:1000D00070E080E090E00F7F0A3218F48AE2902FFF
:1000E00020C0043520F49AE284E5801B1AC00E3744
:1000F00020F49AE2702F745514C0083A20F47AE282
:1001000098EA901B0EC0023D20F47AE2802F885AB4
:1001100008C00C3F20F48AE27CEF701B02C08AE228
:1001200091E0770F880F990F770F880F990F089537
:1001300000E3C0E6D0E0199128E0C49A0000000076
:100140000000C49800000000000000000000000053
:100150002A95263090F7111F58F0C49A000000002D
:100160000000C498000000000000000000000BC068
:10017000C49A000000000000000000000000000021
:1001800000000000C4982A9531F70A95A1F6089559
:10019000C19A369A3699FECF04B105B1B0E0ABE70B
:1001A000A60F0C936395637020E030E0ABE7B0E0FE
:1001B00044E05D91250F50E0351F4A95D1F7379502
:1001C000279537952795322E201B2A3020F424308E
:1001D00010F001E001C000E0C1980895C0E6D0E051
:1001E00038E0C32E10E01993001F1795199310E003
:1001F0001993CA94B9F7089532D004E69AD00895B5
:1002000038EA832E082D0E5F0C3A40F4802E12E05F
:100210002FD03DD08DDF04E68CD0F4CF082D0250D6
:10022000023680F3802E12E023D031D081DF04E645
:1002300080D0F4CF0895D72EE82EF92EB02EA12E1F
:100240003FE3C32E0C2DCA944AD066D071DF0B2D2C
:1002500070D07D2D8E2D9F2DCA14A1F7089505E035
:100260001AE0E9DF0AE014E0E6DF00E562D0089575
:10027000C0E6D0E0C02EB12E29E00C2D29DF8993F5
:1002800079939993CB0C2A95C1F70C2D0895C3E669
:10029000D0E0A0E9B0E007E08991799199919E932F
:1002A0007E938E930A95C1F70895C3E6D0E0A0E649
:1002B000B0E008E119911D930A95E1F78D937D93C4
:1002C0009D930895C9E7D0E0ABE7B0E008E11A904C
:1002D0001E920A95E1F79E937E938E9308950F7375
:1002E000172F08D0712D182F05D0812D192F02D06E
:1002F000912D0895112E12951695169513703FE3C2
:10030000232E201A222009F40895111A2A94FACFD4
:10031000C0E6D0E0C00F0FE0C0E6D0E000E1899376
:10032000799399930A95D9F7089500E00A95F1F722
:10033000089520E01AE01A95F1F72A95D9F70A9561
:04034000C9F708955C
:00000001FF
