:020000020000FC
:100000000FE90DBFBC9AB89AC09A08EA902E09EA87
:1000100012D089D0092D01500339C0F7902E07EA7C
:100020000AD081D0092D0F5F043BC0F3EFCF899335
:1000300079939993089570E080E090E00F7F0A3201
:1000400018F48AE2902F20C0043520F49AE284E567
:10005000801B1AC00E3720F49AE2702F745514C01A
:10006000083A20F47AE298EA901B0EC0023D20F490
:100070007AE2802F885A08C00C3F20F48AE27CEF95
:10008000701B02C08AE291E0770F880F990F770FFB
:10009000880F990F089500E3C0E6D0E0199128E099
:1000A000C49A000000000000C49800000000000096
:1000B0000000000000002A95263090F7111F58F02C
:1000C000C49A000000000000C49800000000000076
:1000D000000000000BC0C49A0000000000000000F7
:1000E00000000000000000000000C4982A9531F7CD
:1000F0000A95A1F6089517D004E67CD00895D72E6E
:10010000E82EF92EB02EA12E3FE3C32E0C2DCA945B
:1001100047D063D0C0DF0B2D6DD07D2D8E2D9F2D50
:10012000CA14A1F7089505E01AE0E9DF0AE014E037
:10013000E6DF00E55FD00895C0E6D0E0402F50E153
:10014000042F79DF74DF00E1400F5A95C9F7089555
:10015000C3E6D0E0A0E9B0E007E0899179919991F8
:100160009E937E938E930A95C1F70895C3E6D0E0DF
:10017000A0E6B0E008E119911D930A95E1F78D938F
:100180007D939D930895C9E7D0E0ABE7B0E008E127
:100190001A901E920A95E1F79E937E938E9308958E
:1001A0000F73172F08D0712D182F05D0812D192FFF
:1001B00002D0912D0895112E129516951695137053
:1001C0003FE3232E201A222009F40895111A2A94BD
:1001D000FACFC0E6D0E0C00F0FE0C0E6D0E000E10B
:1001E0008993799399930A95D9F7089500E00A9530
:1001F000F1F7089520E01AE01A95F1F72A95D9F75A
:060200000A95C9F70895FC
:00000001FF
