:020000020000FC
:10000000D2C21895189517C3189518951895189574
:100010001895189518951895189518951895189578
:100020001895C7C1189510E019D02FEF19E02ED000
:100030002BE31BE02BD023E31DE128D020EC1EE1B5
:1000400025D02CE016E222D020E010E21FD028E0DC
:1000500011E21CD02FE012E219D00895212F206860
:1000600011E014D0089512E120E011D0112309F419
:1000700008951F932FEF12E109D01F910895A898BA
:1000800012E070D0A89A12E06DD00895106804D0E4
:10009000122F25D004D0089504D021D0089507D080
:1000A00008950000000095980000000008950000E9
:1000B0000000959A00000000089520E81DE0E6DFAA
:1000C00010E8EADF22271D910AD023951123D9F7E2
:1000D000E6DF2FE012E2DADF13E0C0DF08951FB998
:1000E000779BFECF1FB108955D9BFECF1CB908958D
:1000F000C895102D112319F0F7DF3196F9CF089527
:100100001991112311F0F0DFFBCF0895D0E0C1E881
:1001100000E3099308E7099369D000E2099300E03E
:100120000993D0E0C1E8ECDF089510917E0011231F
:1001300041F000E000937E00E0917F00F0918000AC
:1001400009950895E0937F00F093800010937D005F
:1001500000E000937E00089522272A95F1F71A9572
:10016000D9F7089510937B0000E000937C00109174
:100170007C001123E1F300E000937C000895332715
:10018000321719F0110F3395FBCF089510917B00B2
:10019000112339F01A9510937B0019F401E00093B4
:1001A0007C0010917A001A9510937A0071F40AE09D
:1001B00000937A0010917D00112339F01A95109365
:1001C0007D0019F401E000937E000895312F20E0B6
:1001D0003A3018F03A502395FBCF08951F701A302B
:1001E00010F420E301C027E3120F0895312F169574
:1001F000169516951695F2DF1993132FEFDF1993C5
:10020000089501E00093910000E000939C00110F1D
:10021000122B1093920010E261D0089520919C005F
:10022000D0E0C3E900E0C20FD01F188323952093CC
:100230009C0020939B00089500E00093A100E1DF63
:100240001091A1001123E1F308951F9310E54CDFF5
:100250001F911F931AE048DF1F9100E000939C005C
:1002600010E03CD010E13AD008951F9313E43CDF36
:100270001F911F931AE038DF1F9101E00093A10046
:1002800000E0009391000895E0DFEF93FF93E09189
:100290009F00F091A0000995FF91EF910895EF93D1
:1002A000FF93F1E0EDE6E0939D00F0939E00FF9157
:1002B000EF91EF93FF93F1E0EDE6E0939F00F09371
:1002C000A000FF91EF9100E000939C0001E000B9D5
:1002D00003E001B9112702D008950895156816BFEB
:1002E00008951091920013B908951F931EE3FCDE48
:1002F0001F911F931EE3F8DE1F9113B11F932F93DD
:100300003F93112F03DF3F912F911F911F931AE00D
:10031000EBDE1F9120919C00D0E0C3E900E0C20F0A
:10032000D01F188320939B00239520939C00089551
:1003300010919C001F9314E5D7DE1F911F9318E5C1
:10034000D3DE1F911F9310E4CFDE1F911F932F93D5
:100350003F93112FDBDE3F912F911F911F931AE0E6
:10036000C3DE1F9120919B00121710F07EDF0895CD
:10037000D0E0C3E900E0C10FD01F2881139510938E
:100380009C001F931CE3B0DE1F911F931CE3ACDEA7
:100390001F911F932F933F93122FB8DE3F912F9100
:1003A0001F911F931AE0A0DE1F9123B908959CDED0
:1003B00008950F930FB7F8940F931F932F933F93C4
:1003C0004F930F92AF93BF93CF93DF93EF93FF932E
:1003D0001F9319E689DE1F91109191001123C1F13D
:1003E00011B11695169516951A951C3008F01CE05B
:1003F0001F93110F110F110FF4E0ECE700E0E10F74
:10040000F01F76DE1F931AE06FDE1F911F91F2E05E
:10041000EEE000E0E10FF01F09951AC00BC00AC022
:100420000BC014C009C012C009C00AC00FC009C067
:100430000AC00CC056DF08957BDF089525DF0895BC
:10044000089553DF089551DF10DF08951DDF0895EB
:1004500010919100112311F0112740DFFF91EF91CE
:10046000DF91CF91BF91AF910F904F913F912F911D
:100470001F910F910FBF78940F911895737461724B
:10048000742020007273746172742000736C615761
:1004900020412000736C6157204E2000747820208A
:1004A0002041200074782020204E20006172626C70
:1004B00073742000736C615220412000736C615290
:1004C000204E2000727820202041200072782020C9
:1004D000204E20006572726F722020006E6F206FB8
:1004E0006E7061636B6574006C44CC006C51990054
:1004F0006C5E66006C6B33006C7800006C84CC0022
:100500006C9199006C9E66006F8133006F82CC0005
:100510006F8466006F8799006F8933006F8ACC0003
:100520006F8C6600001D1A171613110F5072697632
:10053000657421212100030506050706050603034E
:100540000506030303000DE004BB00E007BB02E265
:1005500001BB0EE207BB03E50DB9F89400E000BD56
:1005600005E009B9789408E10AB90EE800BD0BE08E
:100570000EBD00E00BBD03E10ABD0FE005BD09E0C3
:1005800003BD00E809BF8BDE92DD00E0009362004E
:10059000089500E00093610000E00093630000E034
:1005A000009364000895F89404E00EBF0FE50DBFBA
:1005B000789410916100139512300FB700FF112746
:1005C0001093610004B700FDE4DF002704BFBBDF28
:1005D00017C0789410D1F89400E00BBD02E00ABD7A
:1005E000789404E1009364004ADD1DDD56D063D0A9
:1005F000F3E0E0E600E0E10FF01F099508D100C04C
:1006000010E80CDE1FEA0ADE10E808DE17EA06DE54
:100610001CE320E011DE19DE10EC00DE1AEAFEDD3C
:100620001AEAFCDD1AEAFADD1CE320E005DE0DDE45
:10063000FFCF0BDE08950F930FB7F8940F931F931E
:100640002F933F934F930F92AF93BF93CF93DF932B
:10065000EF93FF939BDD10916300139514360FB752
:1006600000FF11271093630010916400112329F0FB
:100670001A951093640009F4C7D0FF91EF91DF91B0
:10068000CF91BF91AF910F904F913F912F911F91BB
:100690000F910FBF78940F91189511E02091610090
:1006A0006EDD109360009ED012E35CDD00E00093ED
:1006B000600098D0089510916100110F110F0895F6
:1006C00007C009C059C0000058C058C074C000001D
:1006D00015E0C4DC089518E120E0D9DC1123209155
:1006E0006500121721F110936500222710FD22608A
:1006F00011FD24602223C1F022FD0BC07CD0F894B0
:1007000000E00BBD0DE00ABD789404E100936400A5
:100710000BC071D0F89400E00BBD07E00ABD7894DF
:1007200004E10093640000C0209360005BD09BDC78
:1007300016FD03C014E116DD089500916000086005
:10074000009360004FD014E10DDD10E120E09FDC4C
:100750001123212F1DE09ADC10E09EDC2FE0BFDC8E
:10076000C3DC78D02A95D9F79ADC00916000077F26
:100770000093600037D008950895089510916200A5
:10078000112361F070DC13FF089500916000077F72
:100790000093600027D016E9E5DC00C001E000937B
:1007A0006200009160000860009360001BD0B0E020
:1007B000A6E683DC0895089510916000889413FDE7
:1007C0000894111F109360000DD0089520916000CF
:1007D00011272795111F2795111F2795111F279561
:1007E000111F02C010916000110F110F25B3237C5F
:1007F000212B25BB089500E40FBDF89400E00DBD4A
:1008000000E00CBD7894089500E00FBD089520E04D
:10081000B0E0A6E6F5E0E6E300E0E20FF01FC895E1
:100820002395102D112359F0F5E0E4E200E0E10FEB
:10083000F01FC895102D16951D9356DCEBCF10E0D8
:100840001D930895B0E0A6E61D91112311F002D08A
:10085000FBCF089500E00BBD1ABDCDDF1AE082DCAE
:04086000D3DF089545
:00000001FF
