:020000020000FC
:100000001ED0189518951895189518951895189547
:100010001895189518951895189518951895189578
:100020001895189518950CE304BB0CE305BB00E08C
:1000300000936100089501E0009360000895F3DFEC
:1000400004B700FDF8DF002704BF00C011E022273D
:1000500036D010916100F0E0EEE900E0E10FF01F12
:10006000C895139510936100102D112321F0109362
:1000700060000FD0EBCF00E000936100E7CF10915C
:100080006000889413FD0894111F1093600001D044
:10009000089510916000110F110F14BB08950F0007
:1000A00000040404040F101010100F0404040609C7
:1000B0000909090610101010101010100000322F3E
:0A00C0003A95F1F71A95D9F7089563
:00000001FF
