:020000020000FC
:0200000019C025
:1000340092E09EBF9FEF9DBF5B985C98239A03E07C
:100044001FEFB6D002E010E0B3D000E110E8B0D06A
:1000540001E110E8ADD002E110E8AAD003E110E814
:10006400A7D004E110E8A4D005E110E8A1D006E18E
:1000740010E89ED007E110E89BD002E013E598D089
:1000840003E010E095D004E010E292D007E010E025
:100094008FD00FE010E08CD000E11FE489D001E1A3
:1000A4001CE886D002E11CE883D003E11CE880D080
:1000B40004E11CE87DD005E11CE87AD006E11CE8E7
:1000C40077D007E11CE874D00AE110E071D00BE1AD
:1000D4001DE76ED00CE110E06BD00DE11FE068D09D
:1000E4000EE110E565D00FE110E062D000E210E00F
:1000F4005FD001E210E75CD00AE210E059D00BE2D5
:1001040011E056D00CE210E053D00DE211E050D0D3
:100114000EE210E04DD00FE210E04AD000E310E010
:1001240047D001E310E044D00AE510E041D00BE5EC
:1001340010E03ED005E910E03BD006E910E038D0ED
:1001440007E910E035D008E910E032D009E910E001
:100154002FD00AE910E02CD00BE910E029D002EAF4
:1001640010E026D003EA10E023D004EA10E020D007
:1001740005EA10E01DD007EB12E91AD001EB1CEAE6
:1001840017D003E01EEF14D0FFCF0BD001E046D010
:1001940019D0539859D0549857D0549A55D047D021
:1001A40008950F9300E03AD00F911BD040D00895EA
:1001B4001F930F9300E032D00F9113D00F9111D001
:1001C40036D0089518E000E054983ED04B9902C010
:1001D400889401C00894001F549A36D01A95A1F748
:1001E400089518E0001F18F453982ED002C0539AB3
:1001F4002BD0549829D0549A27D01A9599F753980C
:1002040023D0549821D000E04B9901E0549A1CD09B
:100214001BD01AD0002309F400C00895539A14D0B7
:10022400549A12D010E6110F012BDBDF0895539A74
:100234000BD0549809D0539807D006D005D004D0D9
:1002440003D002D001D0089524E12A95F1F708954E
:100254002B9A0EE110D02B9808952B9A01E00BD025
:100264002B9808950A95F1F7089510E01A95F1F77F
:100274000A95E1F7089510E020E01A95F1F72A9520
:08028400E1F70A95D1F7089596
:00000001FF
