:020000020000FC
:1000000000C092E09EBF9FEF9DBF9FEF94B99FEF0E
:100010009AB99FEF97B99FEF9BB993E098B90AE21D
:1000200001D0FDCF40E00A3018F00A504395FBCFD5
:10003000502F01D008954198042F10D0409A20D01D
:100040004098052F0BD0419A1BD0089540E0042F13
:1000500005D00CD043954A30D1F708951127F0E030
:10006000EEE8E00FF11F04910BB9089500E010E0F5
:100070002AE00A95F1F71A95E1F72A95D1F7089544
:1000800000E01AE00A95F1F71A95E1F708953F06A6
:080090005B4F666D7D277F6F59
:00000001FF
