:020000020000FC
:0200000019C025
:020016002DC0FB
:1000340002E00EBF0FEF0DBF0FEF07B90AB904B905
:100044000DE0009381000CE4009389000BE400931D
:10005400880002E000936F0000E0009385000093A5
:1000640084000AE20093020178941DD0FECF0F931E
:100074000FB70F93009102010395043609F400E0D1
:10008400009302010F910FBF0F91189500E00093A8
:10009400020109D033D000910201039500930201BB
:1000A4000436B9F708950091020140E00A3018F0CF
:1000B4000A504395FBCF409300010093010101D006
:1000C4000895409A41980091000110D021D04098A1
:1000D400419A009101010AD01BD0089540E0042FF9
:1000E40005D00CD043954A30D1F70895F1E0E2E20F
:1000F40010E0E00FF11F04910BB9089500E010E047
:100104002AE00A95F1F71A95E1F72A95D1F70895AF
:1001140000E01AE00A95F1F71A95E1F708953F0611
:080124005B4F666D7D277F6FC4
:00000001FF
