:020000020000FC
:0200000015C029
:1000160033C022C010E020E01A95F1F72A95E1F7E7
:100026000A95D1F7089592E09EBF9FEF9DBF9FEF7F
:1000360094B99FEF9AB996E090936F0090E09093F1
:10004600800099E09093810090E09093850090E085
:1000560090938400F89484C0F8940F931F932F9381
:100066003F930FB70F9394D00F910FBF3F912F91EE
:100076001F910F9178941895F8940F931F932F93CF
:100086003F930FB70F9389D00F910FBF3F912F91D9
:100096001F910F91789418958927E3296B2D082FC6
:1000A600D331C934EC373B3BC03E7D4272469E4A53
:1000B600124FD353C758035EA6639369C46F8D76F8
:1000C6009A7D1785058D6095259EA6A78EB140BCA5
:1000D6004CC726D3DADFBEEC34FB37214123452556
:1000E6008927E929632C2D2FD331C934CD372F3BEE
:1000F600993EFB4141468B4AC14E2F54C758E65D97
:10010600A66301693F70A875337DF783828B3D96A0
:1001160092E1090F023214F439E001C03AE0F89492
:100126000231E9F00A95000FF0E0EEE990E0E00F09
:10013600F91F259114913093810090E090938500EA
:1001460090E090938400109389002093880088940F
:100156001795279510938B0020938A00789408951D
:1001660002D0FECFFFCFF1E0E8ED059115910F3FEC
:1001760071F0EF93FF931F93CBDF0F914BDF0DD001
:10018600F89402E047DF7894FF91EF91EECF08955F
:100196002B9A2C9A5D9A5E9808952B982D985D98C7
:1001A6005E9A089530282E282C282B2829282728BF
:1001B60025282428222820281F281D281B281928FE
:1001C600182816281428132811280F280D280C285B
:1001D600FF0018141328181E160A14281B141B14C3
:1001E6001628181E1A0A18281F141F141D281D1455
:1001F6001B141A281A1418141628141E130A113C54
:1002060018140F28111E130A11281614181413286F
:10021600141E160A14281B141B141628181E1A0A54
:1002260018281F141F141328141E160A183C00142D
:100236000F501114131414141314113C1814183CF1
:10024600001413501414161418141614143C1B140A
:100256001B3C001416281A1E180A16281A1E180AFD
:1002660016281A1416141150000A0E500F141114E1
:10027600131411140F3C1314133C001411501314CF
:10028600141416141414133C1614163C00141328D4
:10029600141E160A18281F141F14132814141614D3
:1002A60018500002FF00163C1414133C00140F1ED5
:1002B600111E0F14183C0014163C1414132814288D
:1002C60011280F28112813280014131413141314BB
:1002D6000F140F141114131E000A0F140F140F1409
:1002E60011140F141114131E000A131413141314EB
:1002F6000F140F141114131E000A0F140F140F14E9
:1003060000140B140B140B140014131413141314ED
:100316000F140F141114131E000A0E140E140E14CB
:10032600112D0C2D0F2D0B2D0A50003CFF0025140E
:100336001E281E141F0A1E0A1D281E142014196EBC
:1003460000282014192819141A0A190A172819142A
:1003560016780032121419281914171416141714C3
:100366001914141419640014190A170A1614160A13
:10037600140A1714170A160A1914190A170A1D144B
:100386001E141950003CFF001D141814181E160ADE
:1003960015141814181E150A16141A141A141614FD
:1003A6001514181418281D141814181E160A1514D6
:1003B6001814181E150A11141314151416141514EE
:1003C6001814182811141114131E150A16141A14C9
:1003D6001A14161413141314151E160A15141814C9
:1003E6001814151411141114131E150A16141A14C0
:1003F6001A14161413141314151E160A15141814A9
:1004060018280028FF001B3200141B141728142874
:100416000F0A100A120A100A0F3C000410321214B6
:10042600140A160A170A160A1414140A140A140AC5
:10043600000A16280004171817322028200A1B184D
:1004460020181B1820181B3200141B1417281428F8
:100456000B0A0D0A0F0A0D0A0B3C00040D320F148D
:10046600100A0F0A0D0A0F0A10140D1410140D1895
:1004760012140D18100A0F0A0D0A0F0A10140D1483
:1004860010140D1812140D141014100A120A141454
:10049600140A160A171414140F3C000A0D14102817
:1004A6000F0A0F3C003CFF00181E1F1400041B0A15
:1004B6001A0A181E1F1400041B0A1A0A181E1F14F3
:1004C60000041B1E18501F28000A1B0A1A0A18507F
:0A04D6001F28000A1C0A1A0A1D1E46
:00000001FF
