:020000020000FC
:020000001FC01F
:100040000FEF07B90AB904B900E00093000101E21B
:100050000093800009E00093810000E000938B0092
:1000600008EC00938A0000E0009385000093840070
:1000700002E000936F0002E00EBF0FEF0DBF009192
:100080000001039500938A000093000131D0F7CF5F
:1000900040E0042F05D02CD043954436D1F7089585
:1000A0004F935F9340E00A3018F00A504395FBCF1E
:1000B000502F03D05F914F910895409A4198042F9B
:1000C0000FD020D04098419A052F0AD01BD0089518
:1000D00040E0042F05D00CD043954A30D1F7089565
:1000E000F1E0E2E110E0E00FF11F04910BB9089597
:1000F00000E010E022E00A95F1F71A95E1F72A9561
:10010000D1F7089500E01AE00A95F1F71A95E1F7A2
:0C01100008953F065B4F666D7D277F6FF2
:00000001FF
